S00F00004D6F64756C65332E737265637C
S113000045C0000060C000005EC000005CC000008D
S11300105AC0000058C0000056C0000054C0000080
S113002052C0000050C000004EC000004CC0000090
S11300304AC0000048C0000030C3000044C00000B3
S113004042C0000040C0000092C400003CC0000058
S113005060C4000038C0000036C0000034C0000096
S113006032C0000030C000002EC000002CC00000D0
S11300702AC0000028C0000089C4000024C0000079
S113008018C4000020C000001EC0000011241FBEC0
S1130090CFEFD0E1DEBFCDBF12E0A0E0B1E0EEEBE8
S11300A0FFE000E00BBF02C007900D92AE32B10733
S11300B0D9F722E0AEE2B2E001C01D92A53CB2073E
S11300C0E1F78FD47AC79CCF8091BC029091BD0296
S11300D08E31910551F481B5886181BD81B5896006
S11300E081BD81B58F7E81BD08958A3F910551F40C
S11300F081B5886181BD81B58C6081BD81B58F7EFC
S113010081BD089581B5886181BD81B58D6081BD52
S113011081B58F7E81BD089585B7806285BF78944F
S1130120889585B78F7D85BF0895CF938AB18864FC
S11301308AB9E0E00EC08150809334025D9BFECF0B
S1130140C1E0CE0FF0E0EB5CFD4F80818CB9E4DFC1
S1130150EC2F809134028111EECFCF9108950F934B
S11301601F93CF93DF93CDB7DEB72A970FB6F894DA
S1130170DEBF0FBECDBF8091BA029091BB029093B7
S1130180B8028093B702811525E0920739F48FEF06
S113019098E19093BB028093BA0210C0811521E1CB
S11301A0920739F48AEE90E19093BB028093BA02ED
S11301B005C002979093BB028093BA028EE0EDECE7
S11301C0F1E0A5E3B2E001900D928A95E1F7E091A8
S11301D0BA02F091BB0281818F9380818F938BED62
S11301E091E09F938F938E010F5F1F4F1F930F9387
S11301F009D4B80185E392E0FAD387E1809334020D
S11302008091B7029091B8029093BB028093BA0296
S11302108CDF0F900F900F900F900F900F902A96F5
S11302200FB6F894DEBF0FBECDBFDF91CF911F9103
S11302300F9108950F931F93CF93DF93CDB7DEB73C
S11302402A970FB6F894DEBF0FBECDBF87E192E0C8
S11302508093B90280E095E09093B8028093B7024E
S11302608CE0EEEDF1E0A5E3B2E001900D928A9509
S1130270E1F78BE08093340258DF2FE38DE093E0C5
S1130280215080409040E1F700C0000080E98AB925
S11302901BDF8091B7029091B8028B3E20E1920758
S11302A039F48FEF98E19093B8028093B70209C0B4
S11302B08115994131F480E095E09093B8028093E0
S11302C0B7028091B9028E32A1F1E091B702F091A8
S11302D0B80281818F9380818F93FF93EF938AEE8D
S11302E091E09F938F938E010F5F1F4F1F930F9386
S11302F089D3B80185E392E07AD389E0809334020C
S11303008091B7029091B80202969093B8028093BC
S1130310B7020BDF8FE39DE023E081509040204043
S1130320E1F700C000000FB6F894DEBF0FBECDBFEA
S1130330AFCF2A960FB6F894DEBF0FBECDBFDF91C4
S1130340CF911F910F910895CF93EAE9F0E0808156
S113035088648083E0E011C0815080932E028091F4
S11303609B0085FFFCCFC1E0CE0FF0E0E15DFD4FC7
S1130370808180939C00D0DEEC2F80912E0281112D
S1130380EBCFCF910895E0912E0291E09E0F9093D0
S11303902E02F0E0E15DFD4F8083D6DF87EA91E62F
S11303A00197F1F700C00000089580E095E0909374
S11303B0BB028093BA029093B8028093B70280E89C
S11303C085BF85E080936C0096E090939D00109229
S11303D0980083E380939900909395001092900085
S11303E089B981E081BBEAE9F0E08081806980839A
S11303F0089587B78B7F87BF0895982F20E030E05A
S113040007C0992314F444ED9427990F2F5F3F4FAD
S113041023303105B4F3969596959695892B0895D6
S113042080E0EBDF8093B602AEDF86E2E2EFF1E03C
S1130430A5E3B2E001900D928A95E1F784E28093FE
S1130440340273DE8091B60290E09093C3028093ED
S1130450C2020895AADFDBD0E3CF0895CF93DF93E0
S1130460D82F2FE33DE083E0215030408040E1F776
S113047000C0000080E98AB927E132E02093B90284
S113048002C04ADE9C2FC091B902CE32D1F78AB1A4
S11304908F768AB9D130E9F4923331F0933339F05D
S11304A0913339F4C7DE5AC00FDE59DE57C0D2DFAC
S11304B055C086E1E8E1F2E0A5E3B2E001900D92D7
S11304C08A95E1F785E1809334022FDE81E0C6DF6F
S11304D045C09233A1F0933311F1913381F5D111D9
S11304E007C08EE190E09093BD028093BC0236C0B9
S11304F084EF91E09093C1028093C0022FC0D11188
S113050007C08AEF90E09093BD028093BC0226C09E
S113051088EE93E09093C1028093C0021FC0D11172
S113052007C084EF91E09093BD028093BC0216C093
S113053080ED97E09093C1028093C0020FC086E1E2
S1130540E8E1F2E0A5E3B2E001900D928A95E1F7CB
S113055085E180933402E9DD8D2F80DFDF91CF9137
S113056008958FE3E0E0F1E0A5E3B2E001900D929D
S11305708A95E1F78FE380933402D7DD82E06EDF62
S1130580E199FECF1EBA84E08EBB8091C0028DBB80
S11305908CB382608CBB8CB382608CBBE199FECF40
S11305A083E08EBB8091C1028DBB8CB382608CBB17
S11305B08CB382608CBB089581E4E0E4F1E0A5E3B0
S11305C0B2E001900D928A95E1F781E480933402C0
S11305D0ACDD80E043DFE199FECF1FBA82E08EBB41
S11305E08091BC028DBB8CB382608CBB8CB3826067
S11305F08CBBE199FECF81E08EBB8091BD028DBBA7
S11306008CB382608CBB8CB382608CBB0895E199FF
S1130610FECF1FBA81E08EBB8CBB8DB38F3F39F404
S113062082E08EBB8DB38F3FA1F4C6DF12C08DB3C1
S11306301092BC028093BD0282E08EBB2DB38091E8
S1130640BC029091BD02820F911D9093BD028093D4
S1130650BC02E199FECF1FBA83E08EBB8CB38160EC
S11306608CBB8DB38F3F31F484E08EBB8FEF8DBB99
S113067078CF08958DB31092C0028093C10284E0B4
S11306808EBB2DB38091C0029091C102820F911D47
S11306909093C1028093C00208951F920F920FB6E7
S11306A00F9211240BB60F922F933F934F935F93A6
S11306B06F937F938F939F93AF93BF93EF93FF9326
S11306C098DEAEDEFF91EF91BF91AF919F918F9134
S11306D07F916F915F914F913F912F910F900BBE3E
S11306E00F900FBE0F901F90189580E090E09091AE
S11306F0C2022091C402820F911D20E007C09923F9
S113070014F434ED9327880F991F2F5F2B30B8F31F
S1130710892B11F481E0089580E008958091C4024A
S113072090E006C0882314F424ED8227880F9F5F8D
S11307309330C0F3811102C081E0089580E00895F0
S113074080E006C0E82FF0E0E15DFD4F10828F5F8E
S11307508530C0F3089580E006C0E82FF0E0EB5C3C
S1130760FD4F10828F5F8823C4F708958091BA02E9
S11307709091BB028B3E904139F480E091E19093DB
S1130780BB028093BA020BC08AEB92E081159941B7
S113079031F480E095E09093BB028093BA0280919B
S11307A0BA029091BB0291518115984010F412BA8B
S11307B002C081E082BBE091BA02F091BB02809159
S11307C0C2029091C302918380838091BA02909176
S11307D0BB0202969093BB028093BA0280E40DDEC2
S11307E090E09093C3028093C202089580E605DEF0
S11307F08093B602C8CD08958AE4E2E8F1E0A5E367
S1130800B2E001900D928A95E1F788E48093340276
S11308108CDC81E023CE08950F931F93CF93C09176
S1130820B502C093C402CC233CF48C2F90E0909387
S1130830C3028093C20239C00091C2021091C30264
S113084007FF18C052DF882379F08C2F807680321E
S113085039F48CDF8091C2028093B60294DD25C006
S1130860A4DDD5DEDDDD21C01092C3021092C202E8
S1130870BDDF1BC053DF8823B9F08C2F8076803412
S113088049F4012B29F01092C3021092C2020DC048
S1130890B3DF0BC0803449F40115110531F0009326
S11308A0B602802F70DD01C0A1DFCF911F910F919F
S11308B008951F920F920FB60F9211240BB60F9248
S11308C02F933F934F935F936F937F938F939F9354
S11308D0AF93BF93EF93FF9380912E02811106C0D3
S11308E02FDFEAE9F0E08081877B8083FF91EF913D
S11308F0BF91AF919F918F917F916F915F914F9134
S11309003F912F910F900BBE0F900FBE0F901F9031
S113091018951F920F920FB60F9211240BB60F92D7
S11309202F933F934F935F936F937F938F939F93F3
S1130930AF93BF93EF93FF9380913402811104C06E
S11309400ADF8AB1877B8AB9FF91EF91BF91AF919A
S11309509F918F917F916F915F914F913F912F91D3
S11309600F900BBE0F900FBE0F901F9018951F9203
S11309700F920FB60F9211248F938CB18093B9020A
S11309808F910F900FBE0F901F9018951F920F928A
S11309900FB60F9211240BB60F922F933F934F93E0
S11309A05F936F937F938F939F93AF93BF93EF93D3
S11309B0FF9380919C008093B5022EDFFF91EF910D
S11309C0BF91AF919F918F917F916F915F914F9163
S11309D03F912F910F900BBE0F900FBE0F901F9061
S11309E01895E3DC14DE1CDD07DF96DBFFCFFB018B
S11309F0DC010D900020E9F7119701900D92002081
S1130A00E1F708950F931F93CF93DF93CDB7DEB72C
S1130A102E970FB6F894DEBF0FBECDBF0D891E8989
S1130A2086E08C831A8309838FEF9FE79E838D83EF
S1130A30AE01475E5F4F6F89788DCE01019610D06D
S1130A40EF81F885E00FF11F10822E960FB6F8940F
S1130A50DEBF0FBECDBFDF91CF911F910F910895DF
S1130A602F923F924F925F926F927F928F929F92BA
S1130A70AF92BF92CF92DF92EF92FF920F931F93A8
S1130A80CF93DF93CDB7DEB72B970FB6F894DEBFC5
S1130A900FBECDBF6C017B018A01FC011782168257
S1130AA0838181FFBFC1CE0101963C01F601938190
S1130AB0F70193FD859193FF81917F01882309F4C8
S1130AC0ADC1853239F493FD859193FF81917F0106
S1130AD0853221F4B60190E0D6D1E8CF912C212CB7
S1130AE0312CFFE1F315D8F08B3279F038F48032F1
S1130AF079F08332A1F4232D20611DC08D3261F081
S1130B00803369F4232D216016C0832D8260382E32
S1130B10E32DE4603E2E2AC0F32DF8601DC037FC9F
S1130B202DC020ED280F2A3040F08E32B9F436FC67
S1130B3075C1232D2064322E19C036FE06C08AE00A
S1130B40989E200D1124922E11C0EAE02E9E200DB5
S1130B501124222EF32DF0623F2E08C08C3621F48E
S1130B60832D8068382E02C0883641F4F70193FD46
S1130B70859193FF81917F018111B3CF982F9F7D40
S1130B809554933028F40C5F1F4F9FE399830DC055
S1130B90833631F0833771F0833509F055C020C0B6
S1130BA0F801808189830E5F1F4F88248394912CE0
S1130BB0530112C02801F2E04F0E511CF801A0802D
S1130BC0B18036FE03C0692D70E002C06FEF7FEF85
S1130BD0C5014ED14C018201F32DFF773F2E15C084
S1130BE0280122E0420E511CF801A080B18036FE9B
S1130BF003C0692D70E002C06FEF7FEFC5012DD1F6
S1130C004C01F32DF0683F2E820133FC19C0822D74
S1130C1090E088169906A0F4B60180E290E033D102
S1130C202A94F5CFF50137FC859137FE81915F0158
S1130C30B60190E028D121102A9421E0821A91086B
S1130C408114910479F7E1C0843611F0893639F5BD
S1130C50F80137FE07C060817181828193810C5F46
S1130C601F4F08C060817181072E000C880B990BFF
S1130C700E5F1F4FF32DFF763F2E97FF09C090950F
S1130C808095709561957F4F8F4F9F4FF0683F2EF1
S1130C902AE030E0A30133D1882E861844C085377A
S1130CA031F4232D2F7EB22E2AE030E025C0932D7F
S1130CB0997FB92E8F36C1F018F4883579F0AEC01B
S1130CC0803719F0883721F0A9C0E92FE061BE2EE2
S1130CD0B4FE0DC0FB2DF460BF2E09C034FE0AC063
S1130CE0292F2660B22E06C028E030E005C020E19E
S1130CF030E002C020E132E0F801B7FE07C06081B5
S1130D007181828193810C5F1F4F06C06081718164
S1130D1080E090E00E5F1F4FA301F1D0882E86186B
S1130D20FB2DFF773F2E36FE0DC0232D2E7FA22EE6
S1130D30891458F434FE0BC032FC09C0832D8E7E16
S1130D40A82E05C0B82CA32C03C0B82C01C0B92C04
S1130D50A4FE0FC0FE01E80DF11D8081803321F453
S1130D609A2D997EA92E09C0A2FE06C0B394B3940D
S1130D7004C08A2D867809F0B394A3FC10C0A0FEA9
S1130D8006C0B21480F4280C922C9B180DC0B21427
S1130D9058F4B60180E290E076D0B394F8CFB21460
S1130DA018F42B1802C0982C212CA4FE0FC0B601F5
S1130DB080E390E068D0A2FE16C0A1FC03C088E7DF
S1130DC090E002C088E590E0B6010CC08A2D8678D8
S1130DD051F0A1FE02C08BE201C080E2A7FC8DE2CB
S1130DE0B60190E050D0891430F4B60180E390E06D
S1130DF04AD09A94F8CF8A94F301E80DF11D8081CA
S1130E00B60190E040D08110F6CF222009F44ECEF6
S1130E10B60180E290E037D02A94F7CFF6018681BC
S1130E20978102C08FEF9FEF2B960FB6F894DEBF29
S1130E300FBECDBFDF91CF911F910F91FF90EF9027
S1130E40DF90CF90BF90AF909F908F907F906F90E6
S1130E505F904F903F902F900895FC010590615052
S1130E6070400110D8F7809590958E0F9F1F0895BC
S1130E70FC016150704001900110D8F78095909565
S1130E808E0F9F1F08950F931F93CF93DF93FB0142
S1130E90238121FD03C08FEF9FEF2CC022FF16C0DA
S1130EA046815781248135814217530744F4A08138
S1130EB0B1819D012F5F3F4F318320838C93268125
S1130EC037812F5F3F4F3783268314C08B01EC019A
S1130ED0FB010084F185E02D0995892BE1F6D80109
S1130EE016968D919C911797019617969C938E93C5
S1130EF01697CE01DF91CF911F910F910895FA01BA
S1130F00AA27283051F1203181F1E8946F936E7F44
S1130F106E5F7F4F8F4F9F4FAF4FB1E03ED0B4E035
S1130F203CD0670F781F891F9A1FA11D680F791F76
S1130F308A1F911DA11D6A0F711D811D911DA11D87
S1130F4020D009F468943F912AE0269F1124301997
S1130F50305D3193DEF6CF010895462F4770405D32
S1130F604193B3E00FD0C9F7F6CF462F4F70405DE1
S1130F704A3318F0495D31FD4052419302D0A9F73C
S1130F80EACFB4E0A6959795879577956795BA9536
S1130F90C9F700976105710508959B01AC010A2EFC
S1130FA006945795479537952795BA95C9F7620FD3
S1110FB0731F841F951FA01D0895F894FFCF92
S1130FBE0D456E7465722053656E736F7273205790
S1130FCE442043686F696365202826207065726922
S1130FDE6F64293A0D312D302E35730D322D317348
S1130FEE0D332D32730D43686F6963653A2000002B
S1130FFE0D456E746572204D435520574420436849
S113100E6F69636520282620706572696F64293ABA
S113101E0D312D33306D730D322D3235306D730D20
S113102E332D3530306D730D43686F6963653A2027
S113103E00000D0D456E7465722063686F696365FB
S113104E2028616E6420706572696F64293A0D31CF
S113105E2D4D656D2044756D702020322D4C6173BD
S113106E7420456E7472792020332D526573746129
S113107E72740A43686F6963653A2000000D4C610F
S113108E737420456E7472793A20002558000D4D04
S113109E454D2044756D703A0D0025783A2025583B
S11310AE0D000D0D5265736574205265717565736F
S11310BE742073656E7420746F2074686520736574
S11310CE6E736F72732E0D000D4572726F722E2039
S11110DE456E74657220616761696E3A200088
S9030000FC
